:020000040800F2
:10000000F0900020550300081D61000869480008B1
:100010001B61000879140008216700080000000037
:100020000000000000000000000000009502000831
:100030000D18000800000000F1020008FD63000830
:100040006F0300086F0300086F0300086F030008C8
:100050006F0300086F030008211900086F030008F0
:100060006F0300086F0300086F0300086F030008A8
:100070006F0300086F0300086F0300086F03000898
:100080006F0300086F0300086F0300086F03000888
:100090006F0300086F0300086F0300086F03000878
:1000A0006F0300086F0300086F0300086F03000868
:1000B0006F0300086F0300086F0300086F03000858
:1000C0006F0300086F0300086F0300086F03000848
:1000D0006F0300086F0300086F0300086F03000838
:1000E0006F0300086F0300086F0300086F03000828
:1000F0006F0300086F0300086F0300086F03000818
:100100006F0300086F0300086F0300086F03000807
:100110006F0300086F030008D56400086F03000830
:100120006F0300086F0300086F0300086F030008E7
:100130006F0300086F0300086F0300086F030008D7
:100140006F0300086F0300086F0300086F030008C7
:100150006F0300086F0300086F0300086F030008B7
:100160006F0300086F0300086F0300086F030008A7
:100170006F0300086F0300086F0300080000000011
:100180006F0300086F0300086F0300086F03000887
:100190006F0300086F0300086F0300086F03000877
:1001A0000D5100086F030008ED16000800F002F87A
:1001B00000F061F80AA090E8000C82448344AAF1A0
:1001C0000107DA4501D100F056F8AFF2090EBAE89E
:1001D0000F0013F0010F18BFFB1A43F0010318477B
:1001E0005C9C00007C9C00000A444FF0000C10F85E
:1001F000013B13F0070408BF10F8014B1D1108BFA5
:1002000010F8015B641E05D010F8016B641E01F844
:10021000016BF9D113F0080F1EBF10F8014BAD1C94
:100220000C1B09D16D1E58BF01F801CBFAD505E0B2
:1002300014F8016B01F8016B6D1EF9D59142D6D30C
:10024000704700000023002400250026103A28BF34
:1002500078C1FBD8520728BF30C148BF0B60704738
:10026000642900F04F81002070471FB507F098FE09
:100270001FBD10B510BD00F0D3FA1146FFF7F5FF12
:1002800006F0C0FB00F0F1FA03B4FFF7F2FF03BC85
:1002900006F057FA2C4B19680868B0E8F04F80F365
:1002A0000988BFF36F8F4FF0000080F3118870470B
:1002B0000000000008480068006880F308884FF0DC
:1002C000000080F3148862B661B6BFF34F8FBFF3AE
:1002D0006F8F00DF00BF00BF08ED00E0DFF80C000B
:1002E000016841F470010160704700BF88ED00E0D3
:1002F000EFF30980BFF36F8F134B1A681EF0100FD6
:1003000008BF20ED108A20E9F04F106009B44FF0CB
:10031000500080F31188BFF34F8FBFF36F8F07F04A
:10032000AFF94FF0000080F3118809BC1968086824
:10033000B0E8F04F1EF0100F08BFB0EC108A80F349
:100340000988BFF36F8F704750000020EFF30580DE
:10035000704700000948804709480047FEE7FEE76C
:10036000FEE7FEE7FEE7FEE7FEE7FEE7FEE7FEE765
:1003700004480549054A064B70470000C56400085B
:10038000AD010008F08A0020F0900020F08C0020E1
:10039000F08C0020704753EA020C00F069802DE9D0
:1003A000F04B4FF00006002B1FBFB3FA83F503FAA2
:1003B00005F424FA05F65E4012BF1643B2FA82F540
:1003C00002FA05F4C5F120051EBF22FA05FC44EA35
:1003D0000C04203556EA044C4FEA144418BF641C40
:1003E0004FF000084FF00009904271EB030C39D335
:1003F000002919BFB1FA81F701FA07F6B0FA80F7C0
:1004000000FA07F6C7F120071EBF20FA07FC46EAEC
:100410000C062037B6FBF4FCA7EB0507103F07F0EE
:100420001F0BCBF120060CFA0BFB2CFA06F644BF8F
:10043000B3460026202FA4BF5E464FF0000B5BEAB8
:10044000060C08BF4FF0010B19EB0B09ABFB027C4C
:1004500048EB0608C01B06FB02CC0BFB03CC71EB80
:100460000C01C1E70B46024641464846BDE8F08B09
:1004700013B54FF000004FF00001AFF30080BDE86E
:100480001C4070470FB4044910B503AA029800F04D
:1004900077F910BC5DF814FB640100202DE9F041F0
:1004A0000E460446002020622046E168884730B3AB
:1004B000252805D0D4E901219047206A401CF2E7A5
:1004C000E168204600278847050018D0A5F14100C3
:1004D000192802D820354FF40067324629462046B5
:1004E0002760FFF7BDFE40B1012804D0F61D26F0BD
:1004F00007060836D8E7361DD6E72846DAE7206A29
:10050000BDE8F0812DE9F041064600241068752908
:10051000314616A510D0AFF30080002802DA404221
:1005200013A507E031688A0701D512A502E0490743
:1005300004D511A5012401E0AFF3008000210A22B7
:1005400006F1240709E0B0FBF2FCB0FBF2F302FB7A
:100550001C00303078541846491C0028F3D123463B
:100560002A463046BDE8F04100F0B1B80000000076
:100570002D0000002B00000020000000032A40F2A4
:10058000308010F0030C00F0158011F8013BBCF135
:10059000020F624498BF11F801CB00F8013B38BF4D
:1005A00011F8013BA2F1040298BF00F801CB38BF5B
:1005B00000F8013B11F0030300F02580083AC0F079
:1005C000088051F8043B083A51F804CBA0E8081021
:1005D000F5E7121D5CBF51F8043B40F8043BAFF354
:1005E0000080D20724BF11F8013B11F801CB48BFAE
:1005F00011F8012B24BF00F8013B00F801CB48BFE4
:1006000000F8012B704710B5203AC0F00B80B1E81C
:100610001850203AA0E81850B1E81850A0E8185037
:10062000BFF4F5AF5FEA027C24BFB1E81850A0E840
:10063000185044BF18C918C0BDE810405FEA827C5A
:1006400024BF51F8043B40F8043B08BF7047D20771
:1006500028BF31F8023B48BF11F8012B28BF20F812
:10066000023B48BF00F8012B704702F0FF0343EA4A
:10067000032242EA024200F097B84FF0000200B5B0
:10068000134694469646203922BFA0E80C50A0E8B5
:100690000C50B1F12001BFF4F7AF090728BFA0E863
:1006A0000C5048BF0CC05DF804EB890028BF40F82F
:1006B000042B08BF704748BF20F8022B11F0804F71
:1006C00018BF00F8012B70477047704770472DE93D
:1006D000F0470D4699469246044600F12408016809
:1006E000880604D5E06921F01001216000E00120B6
:1006F000A84201DD471B00E00027A1697A1902EB3F
:100700000900081AA0612078C00602D42046AFF381
:100710000080002608E0D4E901211AF8060090477D
:10072000206A401C761C20624E45F4DB2078C0060F
:100730000AD52046AFF3008006E0D4E9012130203D
:100740009047206A401C2062381EA7F10107F4DCA4
:1007500007E0D4E9012118F805009047206A401C01
:100760002062281EA5F10105F3DC2046AFF30080CE
:100770002078000602D50220BDE8F0870120FBE7C3
:10078000074B70B50D467B4400F033F8044628460D
:1007900000F042F810B14FF0FF3070BD204670BD40
:1007A000BB5F00004FF000020429C0F0128010F07F
:1007B000030C3FF464AFCCF1040CBCF1020F18BF82
:1007C00000F8012BA8BF20F8022BA1EB0C01FFF7CA
:1007D00056BF5FEAC17C24BF00F8012B00F8012B53
:1007E00048BF00F8012B704701694A1C0261087874
:1007F000704700B58FB0CDE9013100210591054961
:100800007944CDE9031011466846FFF747FE0FB063
:1008100000BD0000E5FFFFFF007B00F08000704797
:10082000754600F02BF8AE4605006946534620F0A9
:100830000700854618B020B5FFF79AFDBDE82040B7
:100840004FF000064FF000074FF000084FF0000B8C
:1008500021F00701AC46ACE8C009ACE8C009ACE83F
:10086000C009ACE8C0098D46704710B50446AFF327
:1008700000802046BDE81040FFF706BD00487047E5
:10088000908A00207CB5054600F088FA044600F006
:100890007FFA02460020CDE900050748074B0068B3
:1008A00000EB800101EBC00103EB81012346C96D20
:1008B00001F028F97CBD0000D00000202C88002029
:1008C0000A4B30B41B6803EB4304094B03EB84036E
:1008D0009B68DD881C689B88DB1DDB08203A13FBC6
:1008E00002F205FB024230BC00F092BFD0000020B3
:1008F00044890020034840688068002800D00047F1
:1009000070470000D00000202DE9F0470446002782
:1009100099468A461546B846104601E008F1010896
:1009200010F8011B0029F9D100F032FA254A264EB1
:100930004B461168B9F1010F01EB410106EB810152
:1009400089688988B0FBF1F002D0022B0BD105E059
:10095000A0EB0800484304EB500003E0A0EB0800C4
:1009600000FB014084B2904600F012FA0146D8F82C
:10097000000000EB400006EB80008068808807FBE9
:10098000101189B2814213D3012012E05146204652
:10099000FFF796FFD8F800007F1C00EB400006EB45
:1009A0008000BFB280686D1C8088204484B2DBE781
:1009B00000202A780AB1012100E000210842E5D197
:1009C000BDE8F087D00000204489002010B50A4619
:1009D000034600F0CFF9C088BDE81040584381B20B
:1009E00003230020FFF790BF2DE9FF5F824603201D
:1009F0008946A0EB42080025144678E03E4E3F4F62
:100A0000A9EB040B30681FFA8BF100EB400057F89C
:100A100020200AEB0500039080B200F0FBF830685C
:100A20001FFA8BF100EB400057F82020AAEB0500DD
:100A3000029080B200F0EEF83068A9EB050B00EBF5
:100A400040001FFA8BF157F820200AEB04000190B8
:100A500080B200F0DFF830681FFA8BF100EB400045
:100A600057F82020AAEB0400009080B200F0D2F8E2
:100A7000306809EB040B00EB40001FFA8BF157F8CC
:100A80002020039880B200F0C5F830681FFA8BF17F
:100A900000EB400057F82020029880B200F0BAF82E
:100AA000306809EB050B00EB40001FFA8BF157F89B
:100AB0002020019880B200F0ADF830681FFA8BF169
:100AC00000EB400057F82020009880B200F0A2F818
:100AD000B8F1000F04DA08EB850000F1060805E024
:100AE000291B08EB810000F10A08641E6D1CA54259
:100AF00084D9BDE8FF9F0000D00000204489002079
:100B00007CB514460D46064600F042F900FB05612F
:100B10000C480D4B006800EB800202EBC00203EBB7
:100B2000820203F58C73D26D02EB810100EB40026F
:100B300053F822200023CDE900320123224600F0A1
:100B4000E1FF7CBDD00000202C8800202DE9FE4F65
:100B50000027141A002C00DC841A0FFA84F85C1A9F
:100B6000002C00DCCC1A0FFA84FC06B20DB24FF058
:100B7000FF34824203D301208246019001E0A24665
:100B800001948B4203D301208146009001E0A146ED
:100B90000094E0454FF0000008DB8146019008EB2F
:100BA000D870C3464410CDF808C02BE08246002020
:100BB0000090E3460CEBDC70CDF808804410D8467A
:100BC00020E012481249006800EB400051F8202054
:100BD000A9B2B0B200F01EF80298204404B25C45FD
:100BE00008DBA4EB0B0004B20198304406B2009875
:100BF000284405B206EB0A0006B205EB09007F1C8B
:100C000005B23FB24745DCDDBDE8FE8FD0000020D5
:100C10004489002070B514460D46064600F0B8F829
:100C2000074905FB0060096801EB810202EBC10185
:100C3000044A02EB8101C96D41F8204070BD0000FB
:100C4000D00000202C8800202DE9F74FDFF8B49069
:100C50000F4690460321D9F80000A1EB4806DFF8C3
:100C6000A8A000EB400182B0002415465AF82100EC
:100C700000F028FA4FF6FF7B31E08DB1381981B2D0
:100C800002980BEA4502401B0090019280B2FFF7E8
:100C900037FF381B81B2DDE9000280B2FFF730FF79
:100CA0008CB1781B81B202980BEA4402001B0090C1
:100CB000019280B2FFF724FF781981B2DDE90002CA
:100CC00080B2FFF71DFF002E03DA06EB8406B61D87
:100CD00004E0601B06EB80066D1E0A36641CAC4205
:100CE000CBD9D9F8000000EB40015AF8210000F000
:100CF000E9F9029805B042463946BDE8F04FFFF7E2
:100D000073BE0000D0000020448900202DE9FC477C
:100D1000164C8046164F2068994600EB4000164658
:100D20000D4657F8200000F0CDF900F031F82168A9
:100D300000FB058001EB810202EBC101A7F58C727B
:100D400002EB8101C96D01EB800500F021F8811BE8
:100D500020684B4600EB400257F82220CDE90012F4
:100D60003246294600F0CEFEBDE8FC87D0000020C8
:100D70004489002004480549006800EB400001EB6D
:100D80008000806870470000D00000204489002067
:100D900001484068806A0047D00000200148406850
:100DA000C06A0047D000002070B5214C1F480025C4
:100DB0002060092060610120A0611D20E061032006
:100DC000206240F20D10606240F24310A06240F2D7
:100DD0001710E06240F24710206384F8365084F820
:100DE000345004F1E80084F8355008210160C02136
:100DF000016104218161C903416202F027FA656043
:100E0000A560E560256100F059F8204602F06EF813
:100E10000949084848600068804700F087F906489B
:100E2000103000F041F9002070BD00000068014062
:100E30002C88002028010020D000002070B58EB042
:100E400000240E4605460094FFF7A2FFCDE90104F9
:100E5000FFF7A4FF0996CDE90304FF20CDE90504BF
:100E60008DF830408DF831408DF832404FF4C0603D
:100E7000079007200890FFF78BFF0A90FFF78EFF7F
:100E80000B902A4669460A4801F088FF094905EB9C
:100E9000450001EB8002631E5360074B93604FF0E7
:100EA0007F4241F82020024801F0A2FF0EB070BD41
:100EB0002C88002044890020D800002030B5434809
:100EC00087B00021026842F080620260006800F092
:100ED000806005903D481438026842F400020260C8
:100EE000026802F400020592026842F00102026008
:100EF000026802F001020592026842F002020260FA
:100F0000026802F002020592026842F004020260E6
:100F1000026802F004020592026842F008020260D0
:100F2000026802F008020592026842F020020260A4
:100F3000026802F020020592026842F0400202605C
:100F4000006800F04000059041F658000090022033
:100F5000CDE9010103900E20049069461C4801F080
:100F600067FA4FF470601B4C00906946204601F010
:100F70005FFA4FF4986000906946174801F058FAFC
:100F8000482000906946154801F052FA201500905B
:100F90006946134801F04CFA4FF40C60114D009073
:100FA0006946284601F044FA032000900920049085
:100FB0006946204601F03CFA4FF4A0500090694683
:100FC000284601F035FA07B030BD00004438024031
:100FD000000002400004024000080240000C0240F1
:100FE00000140240001802402DE9F041294C074648
:100FF0000E462068284D00EB800101EBC00005EB98
:101000008000806CB8B1012824D0022833D0042895
:1010100031D007282FD0FFF7BBFE216806FB0070F8
:1010200001EB810202EBC10105EB8101C96D11F8F1
:101030001000BDE8F081FFF7ABFE216806FB0070F1
:1010400001EB810202EBC10105EB8101C96D51F891
:101050002000EEE7FFF79CFE216806FB007001EB25
:10106000810202EBC10105EB8101C96D51F820003D
:1010700020F07F40DDE7FFF78BFE216806FB007064
:1010800001EB810202EBC10105EB8101C96D31F871
:101090001000CEE7D00000202C8800200149086015
:1010A00070470000D00000200449054A096801EBA0
:1010B000410102EB8101886070470000D0000020F0
:1010C000448900200349044A096801EB410142F8C0
:1010D00021007047D0000020448900200449054ABF
:1010E00031F8101052F82000002201F0C3BA0000BD
:1010F00064800008C80000200449054A31F8101037
:1011000052F82000012201F0B5BA00006480000806
:10111000C80000200349044A31F8101052F820009A
:1011200001F0A0BA64800008C800002070B51B4818
:1011300019490423016000F13401022207248B6065
:10114000C1E90024C1E903424A618A611021C0E972
:1011500003314021416101260024C0E901644FF4BC
:10116000C071C0E906149102C0E9081489008162C7
:10117000214600F05BF809490848343102F0A5FD2A
:10118000074D08B12E7000E02C7040F26A5000F05C
:1011900009F8287870BD0000400100A01C8A0020DA
:1011A000E80000202DE9F84F1F4C002501260827F4
:1011B0000095C4E90067C4E9026582464FF6FF79ED
:1011C00021464A46A1F1500002F0BAFD012000F08C
:1011D000DBFF0220C4E90007C4E9026521464A4654
:1011E000A1F1500002F0ACFD03204FF00408E560CF
:1011F00084E8810121464A46A1F1500002F0A0FD99
:101200004FF40C700090C4E90260C4E900872146E5
:101210004A46A1F1500002F093FD5146A4F150005E
:10122000BDE8F84F02F074BD6C8A002030B587B07D
:1012300005007DD04D480024016841F001010160A6
:1012400000684A4900F0010008390590086840F438
:1012500080000860086800F480000590086840F08D
:1012600002000860086800F002000590086840F07D
:1012700004000860086800F004000590086840F069
:1012800008000860086800F008000590086840F051
:1012900010000860086800F010000590086840F031
:1012A00020000860086800F020000590086840F001
:1012B000400008600868694600F040000590022080
:1012C000CDE9024001900C20049060200090284855
:1012D00001F0AEF8012000906946264801F0A8F818
:1012E0004CF2037000906946234801F0A1F84FF6D4
:1012F000837000906946214801F09AF84FF63F004C
:10130000009069461E4801F093F848F233100090AF
:1013100069461C4801F08CF81B498020C1E9014056
:101320008000C8604000086180004861800000E0E3
:101330001AE0C1E90604C000C1E908040320C1E9BC
:101340000A0412480C630860296308468D6300F0A4
:101350007FFE0D4800F0AEFE00220F21382001F084
:1013600043FF382001F032FF07B030BD383802406B
:101370000004024000080240000C0240001002403D
:1013800000140240001802405C89002010640240F2
:101390007CB52A4C0546E068016982208847288090
:1013A000002849D0E06801AA69464369822098472D
:1013B000BDF804000B21A0F5B47080B2ADF80400B4
:1013C000B0FBF1F020B16188884201D9491E88B292
:1013D000BDF8001040F6B832ADF80400914202D8D2
:1013E000A1F61E7101E0A1F6D8614942ADF80010E6
:1013F00089B20F22B1FBF2F121B12288914201D9C9
:10140000521E91B2ADF8001062688BB2934201D9BE
:101410008A1A00E0521A93B2A268904201D9821A45
:1014200000E0121A92B21A44052A01D9C4E9011047
:10143000A08868802089A8807CBD0000EC00002086
:1014400070B50B4D0B4C01262880698061688220A5
:101450008847A0F50061113908D1EC6000262168A9
:1014600082208847E868C16882208847304670BD7E
:10147000EC000020FC000020FEE700002DED068BB4
:1014800086B000263546DFF82CA2DFF82C826F46A6
:101490004FF4A37B4FF032099FED88AADFED889AC5
:1014A00088480078032803D19FED878AF0EE488AA8
:1014B00000220221854801F0DDF8E8208DF81000B7
:1014C0003223012204A9824802F0C7FD0024391901
:1014D000322301227E4802F013FD641CE4B2042C86
:1014E000F5D101220221794801F0C4F8794CBDF808
:1014F00000002080BDF802006080B4F90000B04216
:1015000015DAB4F90000301A584510DBB4F90000C0
:10151000B4F9006000EE100AB8EEC00A38EE008A96
:101520000020FFF7E9FD0120FFF7D8FD3DE0B4F909
:101530000000B04216DDB4F90000801BB0F58A7FD0
:1015400010DBB4F90000B4F9006000EE100AB8EE48
:10155000C00A38EE008A0020FFF7C0FD0120FFF727
:10156000D9FD22E0B4F9001091FBF9F000EE100A69
:101570000020B8EEC00A30EE088AB0EE489AFFF7B5
:10158000ADFD0120FFF7AAFD18EE100A00EB0A01DD
:10159000414502D239EE0A8A07E019EE102A4E4977
:1015A0001144414501D239EE4A8AB4F90200A842F9
:1015B00004DAB4F90200281A584508DAB4F902002E
:1015C000A8420FDDB4F90200401B58450ADBB4F90C
:1015D0000200B4F9025000EE100AB8EEC00A78EE2C
:1015E000808A1CE0B4F9021091FBF9F000EE100AB9
:1015F000B8EEC00A30EE280A10EE100AF0EE408A6B
:1016000000EB0A01414502D270EE0A8A07E010EEB3
:10161000101A314A1144414501D270EE4A8A18EE3F
:10162000100A2E49884202DD38EE698A08E0B0EEE1
:10163000480A10EE100A2A4A904201D938EE298A47
:1016400018EE900A884202DD78EEE98A08E0B0EEF2
:10165000680A10EE100A2249884201D978EEA98A58
:10166000DFED200A1B4C002328EE200A28EEA01AEA
:10167000DFED1D0A1C3C0A22C1EE201A02A9BDEEB4
:10168000E11A11EE100A80EE201AADF80800BDEE46
:10169000C10A10EE100AADF80C00E06806F046F939
:1016A00000230A2203A9206906F040F9052005F06D
:1016B00021FAF5E6FFFF37BDFFDFE3020C62EEC360
:1016C00000401C460000002000000000000802400E
:1016D0006405002028000020FFFF373D00606A47B6
:1016E00000606AC7295C8F3C0000C842014800F0D6
:1016F00031BB0000D4030020F0B50468059E656C82
:1017000046EA034305F040451D4365640368DA6318
:101710004268B2F5403F02D00068C160F0BD01F4FC
:101720007F4201F47F0C866801F07F4301F47F075C
:1017300001F47F45CCB242EA0C02BEB1012E16D0B4
:1017400001F47F02D20CC1F3C401022E11D0032E8A
:1017500014D0190F3A0D2D0B23092C0144EA022253
:1017600042EA01321A4300688263F0BD1A43224301
:10177000F9E7AB0A5B0143EAC22206E0DB0FEC0AA1
:10178000640144EA822242EAC3320A43EBE70000E2
:1017900001681823CAB2103AB2FBF3F2054B6FF39B
:1017A0000901032A9B5CC36500D9091D81650846B0
:1017B000704700004080000810B5014600208B698A
:1017C0008A6A4FF0C07453B1B3F5005F15D072B19F
:1017D000012A0CD0022A0AD0032A09D104E01AB146
:1017E000012A06D0022A03D1C96AC90100D5012005
:1017F00010BDC96AA142FAD010BD002AF7D0012A53
:10180000F2D0022AF3D0032AF3D010BD70470000B3
:101810002DE9F74FDFF8A4A00026DAF8000000EB6E
:101820004001274800EB810080688588C788E81D53
:10183000834620F00700401B00F0FF093AE000BF9C
:101840004FEADB010298012901FB06000BD00229B7
:101850000BD0017842780904807841EA022141EAFC
:10186000000800241FE0007801E0008840BA8046AC
:10187000F7E7291B49440120491E884010EA080F58
:10188000DAF8000000EB40010D4802D050F82120AA
:1018900002E000EB8100426800980199204480B288
:1018A000FFF7B8F9641CAC42E3D30198401C80B246
:1018B000761C0190BE42C3D3BDE8FE8FD00000204D
:1018C000448900202DE9F0471C46DDF8209015469C
:1018D0000E468046002700BFB9F1020F08D0761CE3
:1018E000641CB6B2A4B223462A46314640460EE0F6
:1018F00008F101001FFA80F86D1CA01CADB283B284
:10190000A81E82B2B01C81B2A8F1020080B2FFF71B
:101910001DF97F1CFFB2042FDED1BDE8F087000067
:1019200007480169C907FCD106480278012A01D09D
:10193000012100E002210170012000F06DBD0000D6
:10194000000002400000002070B5104E104C0A2824
:1019500004D021787054491C217015E0607800256E
:101960001A2800D1657009496078FFF72FF82570B3
:10197000202120783154401CC0B220701428F8D1A6
:101980006078401C60702570002070BD7C8A00204B
:101990006001002072B6FEE7F0B5D1E907354C6A68
:1019A0000A68C2B102682B4322F4F842144323436D
:1019B0000360D1E901231A43D1E9033423431A43D5
:1019C0004B6989691A430A4341686FF30E010A4360
:1019D00042600020F0BDD1E901263243D1E903671E
:1019E0003E4332434E69896932430A431A432A43CC
:1019F000016822436FF30E010A430260E9E742697E
:101A000043F6FE739A4342EA410141610020704768
:101A100070B514460546D1E9000210438A686FF09C
:101A20001F03C96803EB421242EA412108432969B6
:101A30006FF315010843286100F022FE064609E015
:101A4000601C07D024B100F01BFE801BA04201D90E
:101A5000032070BDA8698006F2D4002070BD00008C
:101A6000F0B56FF00F058C8A2E014FEA054ECB685A
:101A70002F034FF07F4C0EEB04540AB31A03A2F568
:101A80008052836822431D4C23401A438260D1E96F
:101A9000002305EB0313521E1A438B6806EB032346
:101AA0001A430B8A097E07EB03431A430CEB0161CF
:101AB0000A43C16801F070410A43C2600020F0BDD2
:101AC000D1E9002E05EB0E15521E2A438D6806EB58
:101AD00005252A430A4D05EB03331A430B8A097E79
:101AE00007EB03431A4322430CEB01610A4381686D
:101AF00001F070410A438260E0E70000FF0F0FFF32
:101B000000F0FFFF2DE9F8430E460746DDE908180F
:101B1000124815464FF4403242600022C0E90221CB
:101B20000F491C46016000F0A4F9002814D1394681
:101B30000A4800F0BDF800280ED12B463246414637
:101B40000648009400F06AFA002805D1BDE8F84381
:101B50000A21024800F0DAB9BDE8F883D4880020F1
:101B600000B0024038B53C4D01220221284600F069
:101B700081FD142000F008FB00220221284600F01D
:101B800079FD142000F000FB20248DF80040FF2098
:101B90008DF80100322301226946304802F05DFAD7
:101BA00001220221284600F065FD142000F0ECFA25
:101BB00000220221284600F05DFD142000F0E4FA26
:101BC00021208DF800008DF8014032230122694662
:101BD000224802F042FA01220221284600F04AFD82
:101BE000142000F0D1FA00220221284600F042FD24
:101BF000142000F0C9FA23208DF800008DF8014070
:101C0000322301226946154802F027FA01220221F7
:101C1000284600F02FFD142000F0B6FA0022022121
:101C2000284600F027FD142000F0AEFA24208DF89D
:101C3000000010208DF80100322301226946074878
:101C400002F00BFA01220221284600F013FD1420B5
:101C500000F09AFA38BD0000000802406405002038
:101C600010B5040002D0607910B106E0012010BD6B
:101C700000202071204600F005F80120607100204E
:101C800010BD000008B500680649884208D1064822
:101C9000016841F480510160006800F480500090B8
:101CA00008BD00000030024030380240704700009C
:101CB00070B590F83820012A24D0012680F83860C9
:101CC000022280F8392000EB0112148CD3691832FB
:101CD00043EA04451E4C0A2B16D0092B14D0137B63
:101CE00045EA03630029016813D0CD69A5431D436C
:101CF000CD6103681168196151680A291BD009294F
:101D000019D01DE0022070BDD36803F07F432B4340
:101D1000E8E74D6AA5431D434D6203681168996168
:101D200051680A2901D009290AD1D168026821F035
:101D30007F41916204E0D168026821F07F41116225
:101D400080F83960002180F83810084670BD000026
:101D50000F0003FF2DE9F047044600684668056858
:101D6000F1074FF004084FF000074FF0010914D0BD
:101D7000E90512D5016821F480710160E06B40F043
:101D80000100E0632168C1F8089084F8398084F884
:101D90003870616909B120468847B00615D5A80496
:101DA00013D52068016821F40051016021682020CA
:101DB0008860E06B40F00200E06384F8398084F8CA
:101DC0003870616909B120468847300715D5280564
:101DD00013D52068016821F40061016021680820A2
:101DE0008860E06B40F00400E06384F8398084F898
:101DF0003870616909B12046884770070CD56805BD
:101E00000AD52068016821F4806101602168C1F869
:101E10000880204600F05AF8B00713D5A80511D560
:101E20002068016821F40071016021680220886047
:101E3000E06BE06384F8399084F83870216909B167
:101E400020468847F00612D5E80410D520680168BE
:101E500021F480510160216810208860E06BE0630C
:101E600084F8399084F838702046FFF71FFFBDE8EA
:101E7000F08770B5040004D094F83900002510B143
:101E800006E0012070BD84F83850204600F020F8AC
:101E9000022084F8390020680168626821F440312A
:101EA000114301602068416BA26821F007011143D2
:101EB00041632068016CE2686FF30D011143016416
:101EC000E563012084F83900002070BD70470000F0
:101ED00008B500680B49884212D10B48016841F4EB
:101EE000000101600068002200F40000009005215C
:101EF0005A2001F079F9BDE808405A2001F066B98E
:101F000008BD000000B00240303802402DE9F8431F
:101F100000260446009600680D4600684FF004074E
:101F2000C0074FF0030825D000F0AAFB81461DE052
:101F30004068009010F0210F0FD00098800603D564
:101F4000E06B40F00200E0630098C00703D0E06B54
:101F500040F00100E063212034E0681C06D000F06E
:101F60008FFBA0EB0900A8424DD8A5B320684168BB
:101F70008907DDD52068C169406A01F0200100F0C1
:101F80002000084335D000F07BFB81462DE04068FF
:101F9000009010F0290F1FD00098000703D5E06BC8
:101FA00040F00400E0630098800603D5E06B40F049
:101FB0000200E0630098C00703D0E06B40F001002E
:101FC000E06329202168886084F8397084F83860DB
:101FD0000120BDE8F88316E0681C06D000F050FB35
:101FE000A0EB0900A8420ED86DB120684168C9066F
:101FF000CDD5216812208860012084F8390084F84A
:1020000038600020E5E754F83C0F40F0200044F829
:10201000040984F8018026700320DAE738B5044605
:10202000049894F83850012D10D0012584F83850C8
:10203000022584F8395000902046FFF75DFB2068A8
:10204000016841F001010160002038BD022038BD67
:1020500070B504002BD094F83500022826D02068F3
:10206000016821F0010101602068002505602068F9
:102070004560206885602068C5602068056121682A
:10208000212048612046FFF783FBE56325646564F2
:10209000A564E564256594F85C203F21914081604A
:1020A000656584F8355084F83450002070BD0120F7
:1020B00070BD00002DE9F041044600F0E1FA06464B
:1020C0005CB1022084F83500002584F83450206883
:1020D000016821F0010101600DE00120BDE8F081FF
:1020E00000F0CEFA801B052805D92020606503206A
:1020F00084F83500F2E720680068C007F0D1226854
:10210000116820480140D4E901031843D4E903369B
:102110003343184363691843A3691843E3691843B9
:10212000236A18430843616A042903D1D4E90B13D5
:1021300019430843106020684069666A20F007016F
:1021400030460E43012704280CD1A06A0643E06AFA
:1021500040B12046FFF730FB20B14020606584F895
:102160003570BAE7206846612046FFF711FB94F806
:102170005C203F2191408160656584F835700020C6
:10218000ACE700003F8010F070B5044600F078FA2C
:102190000546601C02D004480078044400F070FA40
:1021A000401BA042FAD370BD400000202DE9F04151
:1021B00086B014216846FEF760FA2B4801680029B2
:1021C0004FD14FF00108C0F8008028480024016872
:1021D00041F0010101600068022500F00100059056
:1021E0004FF63F00CDE9000502AA03260C2782E83E
:1021F000D00069461E4800F01BF902AA694682E831
:10220000D000CDE900851B4800F012F948F23310E8
:10221000CDE9000502AA694682E8D000164800F020
:1022200007F94FF68370CDE9000502AA694682E8F6
:10223000D000124800F0FCF84CF20370CDE9000524
:1022400002AA694682E8D0000D4800F0F1F860204B
:10225000CDE9000502AA694682E8D000094800F0ED
:10226000E7F806B0BDE8F0813800002038380240B9
:102270000014024000080240001802400010024012
:10228000000C0240000402402DE9F04F0022DFF86C
:1022900054B101264FF00F0906FA02F401EA0403D3
:1022A000A3427DD122F003075F44D7F808C8950701
:1022B0004FEA157809FA08FA0AEA0C05DFF828C18E
:1022C000604502D14FF0000C40E0DFF820C16045CE
:1022D00002D14FF0010C39E0DFF814C1604502D1A2
:1022E0004FF0020C32E0DFF80CC1604502D14FF034
:1022F000030C2BE0DFF800C1604502D14FF0040C65
:1023000024E0DFF8F8C0604502D14FF0050C1DE075
:10231000DFF8ECC0604502D14FF0060C16E0DFF8A4
:10232000E4C0604502D14FF0070C0FE0DFF8D8C0E1
:10233000604502D14FF0080C08E0DFF8D0C06045DE
:1023400002D14FF0090C01E04FF00A0C0CFA08FC26
:10235000AC4522D12E4DD5F800C02CEA030CC5F8AF
:1023600000C005F1040CDCF800509D43CCF800508F
:10237000274D0C35D5F800C02CEA030CC5F800C079
:102380002D1FD5F800C02CEA030CC5F800C0D7F803
:10239000085825EA0A05C7F808580568570000E0FC
:1023A0001AE00323BB409D430560D50800EB85057B
:1023B000D5F820C057074FEAD76809FA08F72CEA82
:1023C000070CC5F820C0C5689D43C5604568A54396
:1023D000456084689C438460521C102AFFF45CAF03
:1023E000BDE8F08F003001400000024000040240D0
:1023F00000080240000C024000100240001402409D
:1024000000180240001C024000200240002402404C
:10241000003C014070470000044910B50A680242C0
:1024200002D00860FFF7F6FF10BD0000143C014029
:102430002DE9F84FDFF8F8A10022012403254FF021
:102440000F090AF1040BAAF1040E00BF0B6804FA8D
:1024500002F63340B34270D10F7907F00307012F22
:1024600001D0022F16D187684FEA420805FA08FC0E
:1024700027EA0C07D1F80CC00CFA08FC4CEA070C50
:10248000C0F808C04768B7430E79C6F300169640F7
:102490003E4346600E79F643B6070AD0C7684FEA56
:1024A000420C05FA0CF6B7438E6806FA0CF63E436A
:1024B000C6600E7906F00306022E10D1D60800EB96
:1024C0008608D8F8206057074FEAD76C09FA0CF74E
:1024D000BE430F6907FA0CF73743C8F82070066847
:1024E0004FEA420C05FA0CF7BE430F7907F00307D9
:1024F00007FA0CF7374307604E6816F4403F1CD0CC
:102500004C4E376847F480473760366822F003073F
:1025100006F480460096484E07EB060CDCF8086887
:1025200097073F0F09FA07F826EA0806DFF80C813B
:10253000404503D14FF0000841E072E0DFF8008130
:10254000404502D14FF0010839E0DFF8F8804045FE
:1025500002D14FF0020832E0DFF8EC80404502D1B2
:102560004FF003082BE0DFF8E480404502D14FF044
:10257000040824E0DFF8D880404502D14FF0050878
:102580001DE0DFF8D080404502D14FF0060816E08C
:10259000DFF8C480404502D14FF007080FE0DFF8B4
:1025A000BC80404502D14FF0080808E0DFF8B08059
:1025B000404502D14FF0090801E04FF00A0808FA3F
:1025C00007F848EA0608CCF80888DAF800605746A9
:1025D000D1F804C09E435FEACC2C00D51E433E6078
:1025E000DBF800605F46D1F804C09E435FEA8C2CA4
:1025F00000D51E433E60DEF800607746D1F804C087
:102600009E435FEA8C3C00D51E433E60084F083F66
:102610003E68D1F804C09E435FEACC3C00D51E431F
:102620003E60521C102AFFF411AFBDE8F88F000085
:10263000083C0140443802400030014000000240A4
:102640000004024000080240000C0240001002405A
:102650000014024000180240001C0240002002400A
:1026600000240240426921EA02030A4043EA02418F
:10267000816170470AB1816170470904FBE700007E
:1026800001488068704700004000002090F83D201D
:10269000202A01D002207047242280F83D200268C1
:1026A000136823F0010313600268536A23F01003D8
:1026B00053620268536A0B43536201680A6842F02E
:1026C00001020A60202180F83D100020704790F838
:1026D0003D20202A01D002207047242280F83D208E
:1026E0000268136823F00103136003685A6A22F03A
:1026F0000F020A4391B2596201680A6842F001026E
:102700000A60202180F83D100020704710B50400B9
:1027100013D0242084F83D002068016821F00101D5
:102720000160204600F066FA0020206484F83D0035
:1027300044F8300FA073207310BD012010BD90F835
:102740003D00704770B5040025D094F83D00002589
:1027500020B984F83C50204600F06AFA242084F81E
:102760003D002068016821F00101016020680168D6
:1027700041F4004101602068016821F400410160DA
:1027800000F048FF4D4A6168914201D84C4900E091
:102790004C49884201D2012070BD4B492368B0FBEF
:1027A000F1F15E6826F03F060E435E606368934277
:1027B00006D94FF4967359434FF47A73B1FBF3F192
:1027C0002368491C1E6A26F03F063143196261687E
:1027D000914210D84900401EB0FBF1F2521CC2F3E6
:1027E0000B02042A01D2042022E0B0FBF1F0401CCD
:1027F000C0F30B001CE0A268F2B301EBC10303EBD2
:102800000116431EB3FBF6F35B1C43F480431B0528
:1028100049D092B301EBC10202EB0111401EB0FBA3
:10282000F1F0401CC0F30B0040F4804040F4004045
:102830002168CA694CF6FF739A431043C861D4E912
:10284000071001432068026822F0C00211430160B2
:10285000D4E9030101432068826848F2FF339A43B8
:1028600011438160D4E9050108432168CA6822F058
:10287000FF021043C86001E00EE016E02068016826
:1028800041F0010101602564202084F83D002563AA
:1028900084F83E50002070BD01EB4106431EB3FB9F
:1028A000F6F35B1CB3E70120C2E701EB4101401ED8
:1028B000B0FBF1F0401CC0F30B00B7E7A0860100AD
:1028C00080841E0000093D0040420F002DE9FF4FAB
:1028D00083B09A46DDE9119793460446DDF84080BF
:1028E000FFF7CEFE054694F83D00202870D119234D
:1028F000012271492046009502F0C6F80028F5D162
:1029000094F83C00012863D0012084F83C00206842
:102910000168C90703D1016841F001010160206825
:10292000016821F400610160222084F83D0040200C
:1029300084F83E0000262664C4F82480A4F82A9077
:10294000608D20855D48E062CDE9007553465A46AA
:102950002046049901F0A0FF00287CD1208DD0B141
:10296000012821D00228206824D041698069009084
:10297000208D032869D801282BD0514902283B46D5
:102980004FF00002009559D08846204602F07CF8AE
:10299000002860D13CE020684169816900910168AC
:1029A00041F40071016077E02068016821F48061E2
:1029B0000160F0E7016821F480610160206801682E
:1029C00041F400610160206841698069009063E022
:1029D0006FE02A463946204602F0D5F898BB2068B9
:1029E0000069616A08704EE02068016841F4007176
:1029F000016020680069616A0870606A401C60625A
:102A0000218D491E2185618D491E6185216838E02F
:102A10002068016821F48061016020680069616AB2
:102A20000870606A401C6062208D401E2085608DA9
:102A3000401E60853B46002241460095204602F03C
:102A400023F800B9D0E706E0FFE72A4639462046DA
:102A500002F099F818B1012007B0BDE8F08F2068A6
:102A60000069616A0870606A401C6062218D491EBD
:102A70002185618D491E618521684A69D2435207CB
:102A80000AD409690170606A401C6062208D401E92
:102A90002085608D401E6085208D00287FF468AF02
:102AA000202084F83D0084F83E6084F83C600020DB
:102AB000D2E70220D0E70000020010000000FFFF74
:102AC000040001002DE9FF4F83B09A46DDE911971C
:102AD00093460446DDF84080FFF7D2FD054694F8A2
:102AE0003D0020287FD1192301224049204600952E
:102AF00001F0CAFF002876D194F83C00012872D07A
:102B0000012084F83C0020680168C90703D10168EE
:102B100041F0010101602068016821F40061016059
:102B2000212084F83D00402084F83E0000262664E1
:102B3000C4F82480A4F82A90608D20852C48E06297
:102B4000CDE9007553465A462046049901F022FF0C
:102B500070B930E02A463946204602F047F858B1AD
:102B6000206C042804D12068016841F400710160E0
:102B7000012007B0BDE8F08F606A21680078086125
:102B8000606A401C6062218D491E89B22185628D78
:102B9000521E628522685369DB435B070BD469B11F
:102BA00000781061606A401C6062208D401E2085A4
:102BB000608D401E6085208D0028CBD12A46394685
:102BC000204601F03BFF0028CAD154F83D0B0168B4
:102BD00041F400710160202004F81E09E677667751
:102BE0000020C6E7FFE70220C3E700000200100054
:102BF0000000FFFF10B50068094988420FD109485D
:102C0000016821F40001016041150748FFF73CFB12
:102C1000BDE810404FF480710448FFF735BB10BD8C
:102C2000005C0040403802400008024000000240C2
:102C3000F0B587B0044614216846FDF71EFD1C4917
:102C40002068884231D11B480024016841F004010A
:102C50000160016801F004010591016841F0010182
:102C600001600068122500F0010005904FF400702B
:102C700001268DE861000427CDE9034769460E4827
:102C8000FFF7D6FB30028DE86100CDE903476946C6
:102C90000A48FFF7CDFB07481030016841F40001F6
:102CA0000160006800F40000059007B0F0BD00006E
:102CB000005C004030380240000802400000024042
:102CC000024881680278114481607047400000200A
:102CD0000B4810B5016841F400710160016841F4CE
:102CE00080610160016841F480710160032000F09F
:102CF0009BFA002000F006F800F04CFA002010BD0E
:102D0000003C024030B505461F4887B000240168EA
:102D100041F010010160006806A900F01000009069
:102D200001A800F057FC0498A8B100F073FC400023
:102D30001649174AB0FBF1F11648491E026040F2ED
:102D4000E732C0E90324C0E90114846101F074FB97
:102D5000040003D015E000F05DFCE9E70D4801F048
:102D6000ADFB04000DD1362000F030FA102D07D253
:102D700000222946362000F037FA0748056000E0B7
:102D8000012407B0204630BD4038024040420F00C9
:102D90000010004048060020440000202DE9F041CA
:102DA000044690F8A00016460F4601281DD00125C4
:102DB00084F8A050022084F8A10006EB860000EB06
:102DC000C60004EB800034223830FDF71CFC32468C
:102DD0003946204602F0A0F92068456284F8A150E7
:102DE000002084F8A000BDE8F0810220FBE700008D
:102DF00090F8A01001290ED0012100F8A01F022296
:102E00004270064A136843F4803313604170002116
:102E100001700846704702207047000018680140A2
:102E200070472DE9F04104460068856B466B6907E1
:102E30004FF004084FF0000715D5710713D5416B0B
:102E400021F0040141632168C1F83C80D4F8A4104A
:102E500041F00101C4F8A41084F8A18084F8A070A6
:102E60002046FFF7DDFFA80716D5B00714D5206868
:102E7000416B21F00201416321680220C863D4F84C
:102E8000A40040F00200C4F8A40084F8A18084F8F3
:102E9000A0702046FFF7C4FF05EA0600C0074FF008
:102EA00001080ED02068416B21F0010141632168C7
:102EB000C1F83C8084F8A18084F8A070204600F01E
:102EC0008FF8280710D530070ED52068416B21F008
:102ED0000801416321680820C86384F8A18084F850
:102EE000A070204600F054F9BDE8F08170B50400F0
:102EF00004D094F8A100002510B106E0012070BDB7
:102F000084F8A050204600F06DF8022084F8A1005B
:102F10002068816921F070418161D4E90101084391
:102F2000D4E903121143084321688A691043886178
:102F300021688A68294802408A60A18A0A042168B7
:102F40008B68A669334313438B602168CA680240CB
:102F5000CA60A18B0B042168CA68266A32431A43EF
:102F6000CA6021680A6902400A61A18C22680B04C8
:102F70001169A66A31431943116121684A69024007
:102F80004A61A08D010420684269236B1A430A43F9
:102F9000426194F835002168020294F83600CB6A49
:102FA00003F07F43CB622168CB6A94F8346042EA35
:102FB000004033430343CB622068416B41F006017C
:102FC00041632068816941F001018161C4F8A45026
:102FD000012084F8A100002070BD000000F800F07E
:102FE000704700002DE9F04192B004461421684674
:102FF000FDF743FB302105A8FDF73FFB5C49206846
:1030000088427DD1082005903C20099005200B9036
:103010004FF480300E9005A800F018F908B1FEF7C3
:10302000B9FC54480024016841F0806101600068E7
:1030300000F0806011904F481438016841F0200181
:103040000160016801F020011191016841F0010166
:103050000160016801F001011191016841F0020174
:103060000160016801F002011191016841F0400125
:103070000160016801F040011191016841F0040113
:103080000160016801F004011191016841F008013B
:1030900001600068022500F0080011904FF4806084
:1030A0000090CDE901540E26CDE903466946324829
:1030B000FFF7BEF941F658000090CDE90154CDE983
:1030C000034669462D48FFF7B3F903200090CDE988
:1030D00001540927DFF8A880CDE903476946404637
:1030E000FFF7A6F94FF470600090CDE90154CDE9E7
:1030F000034669464046FFF79BF94FF40C6000E039
:1031000032E00090CDE90154DFF87880CDE9034644
:1031100069464046FFF78CF94FF498600090CDE97E
:103120000154CDE9034669461748FFF781F9482065
:103130000090CDE90154CDE9034669461348FFF7F5
:1031400077F94FF4A0500090CDE90154CDE9034741
:1031500069464046FFF76CF900220521582000F02F
:1031600043F8582000F032F812B0BDE8F0810000BA
:103170000068014044380240001402400000024050
:10318000000402400018024000080240000C024007
:10319000704700000C4882B0016841F48041016032
:1031A000006800F4804000900748001F016841F06B
:1031B000805101600068002200F0805000900F21D3
:1031C000901E02B000F010B844380240002809DB1D
:1031D00000F01F02012191404009800000F1E02031
:1031E000C0F8001170470000F0B40E4B1B680C468D
:1031F000C3F30223C3F10705042D00D90425191DCB
:10320000072901D2002300E0DB1E012606FA05F1A2
:10321000491E214099409E40761E16403143F0BC25
:1032200003F07FBA0CED00E0064900F007020868E1
:103230004FF6FF03184040EA0220034A104308609B
:10324000704700000CED00E00000FA052DE9F84F92
:1032500004460068DFF824A2894F8A4DC1074FF069
:1032600001084FF0000603D1810701D4400648D57C
:10327000CAF86860FFF704FA814605E0FFF700FA34
:10328000A0EB090002287DD828680001F6D4207838
:10329000C1077D4805D06168227A890141EA02713F
:1032A00001602178890711D501686268237B92014A
:1032B000C1F3027142EA036242EA017101603968B6
:1032C000E26921F01F01521E11433960217849063D
:1032D00008D56168227B890141EA0261227A41EACC
:1032E00002710160CAF86880FFF7CAF9814605E0FB
:1032F000FFF7C6F9A0EB0900022843D828680001AF
:10330000F6D52068410701D400074ED5CAF8706091
:10331000FFF7B6F9814605E0FFF7B2F9A0EB090027
:1033200002282FD82868C0438000F5D520784107AF
:10333000564814D501682269237D9201C1F30271B8
:1033400042EA036242EA017101603968226A6FF061
:10335000FF0321F4F85103EB022211433960217875
:10336000090712D501682269C1F30361920142EA9B
:103370000161227E41EA027101603868616A20F4CD
:10338000403000E051E008433860CAF87080FFF731
:1033900077F9074605E000BFFFF772F9C01B022866
:1033A00043D82868C0438000F6D42078800653D5DF
:1033B00034484030016841F0805101600068344D6C
:1033C00000F080500090286840F480702860FFF77B
:1033D00057F9074605E000BFFFF752F9C01B022866
:1033E00023D82868C005F7D5274D143D286810F468
:1033F000407020D0218D01F4407181421BD028689B
:1034000020F440712348C0F80080066029602868D5
:10341000C00710D0FFF734F9064641F2883707E0BD
:10342000FFF72EF9801BB84202D90320BDE8F88FC0
:1034300028688007F4D5A16A1248C1F30122083038
:10344000032A13D0016821F4F81101602868218D46
:10345000C1F30B01084328602078C00604D50E494B
:1034600094F82C00C1F8E0010020DFE702680B4B64
:1034700022F4F81219400A430260E7E700004742CD
:103480008C380240003802408438024088380240BC
:1034900000700040400E474200104742FFFCFF0F03
:1034A0002DE9F0470E46050065D0DFF81481D8F805
:1034B0000000F7B200F00F00B04207D288F80070A9
:1034C000D8F8000000F00F00B04254D128683D4CFD
:1034D000810712D5400703D5206840F4E0502060F2
:1034E0002878000703D5206840F4604020602068F9
:1034F000A96820F0F000084320602878C0072DD08C
:10350000304968680839012812D0022813D00328EE
:1035100011D00968890700292DDA216821F00301FB
:1035200001432160FFF7ACF8814641F2883A0EE092
:1035300009688903EFE709688901ECE7FFF7A0F85C
:10354000A0EB0901514502D90320BDE8F0872068AE
:10355000696800F00C00B0EB810FEFD1D8F80010D3
:10356000404601F00F01B14207D90770006800F032
:103570000F00B04201D00120E7E72878400705D5C9
:103580002068E96820F4E0500843206028780007AC
:1035900006D52068296920F4604040EAC100206017
:1035A00000F058F82168084AC1F30311515CC84083
:1035B0000649086006480068FFF7A4FB0020C4E73E
:1035C000003C024008380240488000084C000020BF
:1035D000440000200F2202600C4A136803F003032A
:1035E0004360136803F0F0038360136803F4E0534F
:1035F000C36012684FF4E05303EAD2020261044848
:10360000006800F00F0008607047000008380240B2
:10361000003C02400448054900680968044AC1F3B7
:103620008221515CC84070474C000020083802409D
:10363000588000080448054900680968044AC1F335
:103640004231515CC84070474C00002008380240AD
:1036500058800008154810B5006810F00C02144896
:1036600013D04110042A0FD0082A0ED10F4C241F6A
:103670002268236802F03F025B0207D52068C0F38E
:103680008810A0FB010106E0084610BD2168C1F3C7
:103690008811A1FB00010023FCF77DFE2168C1F326
:1036A0000141491C4900B0FBF1F010BD083802404F
:1036B0000024F4002DE9F84F04006ED02078DFF8E4
:1036C0004C93C007A9F104054AD009F10400016830
:1036D000C1F38101012908D00068C0F381000228EC
:1036E0000AD1D9F80000400206D52868800337D5F2
:1036F00060680028E1D033E06068B0F5803F10D00A
:10370000B0F5A02F286810D020F4803028602868F9
:1037100020F4802028606068A8B1FEF7B1FF06465B
:103720000DE0286840F48030F4E740F48020286001
:10373000F7E700BFFEF7A4FF801B642873D8286852
:103740008003F7D50CE0FEF79BFF064605E000BFBF
:10375000FEF796FF801B6428F0D828688003F7D412
:103760002078DFF8AC8280074FF0000A3ED5A748EA
:10377000001D016811F00C0F08D00068C0F3810033
:1037800002280BD1D9F80000400207D4286880072E
:1037900016D5E068012800D112E033E1E068B8B145
:1037A0000120C8F80000FEF76BFF064605E000BFE9
:1037B000FEF766FF801B0228C0D828688007F7D56F
:1037C0002868216920F0F80040EAC10028600DE077
:1037D000C8F800A0FEF754FF064604E0FEF750FFCD
:1037E000801B02281FD828688007F7D4207800079C
:1037F00022D5864F87486169703771B10121016018
:10380000FEF73EFF064604E0FEF73AFF801B022863
:1038100009D838688007F7D50EE0C0F800A0FEF799
:103820002FFF064605E082E0FEF72AFF801B0228F4
:103830007DD838688007F7D42078400768D5DFF84E
:10384000CCB100270BF13C0BDBF80000C0000BD41F
:10385000DBF8001041F08051CBF80010DBF80000DD
:10386000012700F0805000906B4E3068C00510D4E6
:10387000306840F480703060FEF702FF009005E091
:10388000FEF7FEFE0099401A022850D83068C005A5
:10389000F6D55E4EA0686C3601280FD0052830683A
:1038A00010D020F001003060306820F0040030605B
:1038B000A068B8B1FEF7E4FE00900FE0306840F079
:1038C0000100F4E740F004003060F7E7FEF7D8FEAF
:1038D0000099411A41F28830814266D830688007E9
:1038E000F4D50EE0FEF7CCFE009007E0FEF7C8FE30
:1038F0000099411A41F28830814256D830688007D9
:10390000F4D42FB1DBF8001021F08051CBF8001077
:10391000A069C8B33D49091D0968C1F381010229A5
:103920004AD00228504607D0C8F8600000E03CE0CA
:10393000FEF7A6FE04463BE04746C8F86000FEF7E7
:103940009FFE064605E000BFFEF79AFE801B022898
:103950002BD828688001F7D4D4E907010843A16A6D
:103960002E4A490802EB0141626A41EA821108438A
:1039700094F82C1040EA0161C9F800100120386663
:10398000FEF77EFE044606E03EE000BFFEF778FE4E
:10399000001B022809D828688001F7D534E000BF51
:1039A000FEF76EFE001B022802D90320BDE8F88F47
:1039B00028688001F4D427E00128F7D0D9F8000066
:1039C000E26900F4800191421CD1226A00F03F01BB
:1039D000914217D147F6C071626A0140B1EB821F74
:1039E00010D1A26A4FF0FF3300F4403103EB5202D2
:1039F000B1EB024F06D194F82C1000F07060B0EBE0
:103A0000016F01D00120D1E70020CFE70438024048
:103A100000004742800E4742007000400000FFFF58
:103A200010B50B460168896A596001680969C1F3DC
:103A30000E019960006801680D480140C1F305401E
:103A40001870C1F306245C7001F07F049C70890D2E
:103A5000D97052B902F063FB1870587802F05FFB1E
:103A60005870987802F05BFB9870002010BD000041
:103A70007F7F7F0010B5040002D0607F10B106E0A8
:103A8000012010BD00202077204600F039F80220E8
:103A900060772168CA204862216853204862204626
:103AA00002F052FB30BB20688168144A11408160EB
:103AB0002168886862681043D4E904231A431043DC
:103AC00088602168E068086120680169228941EA0C
:103AD00002410161204602F05BFB58B921680A6C83
:103AE00022F480220A6421680A6CA3691A430A64DA
:103AF000012161772268FF21516210BDBFFF8FFF56
:103B000010B58CB0044630216846FCF7B6FD094973
:103B1000206888420CD12020009000010A9068465D
:103B2000FFF794FB08B1FDF735FF0349012008605A
:103B30000CB010BD002800403C0E474270B5044652
:103B4000007F0B46012819D00126267702206077D6
:103B5000B2B19878D97840EA0145587819780002CE
:103B600040EA413005432168CA2048622168532059
:103B70004862204602F0E8FAD0B122E0022070BD8F
:103B80005878C10603D500F0EF000A305870D87895
:103B900002F0CEFA0204587802F0CAFA42EA002291
:103BA000987802F0C5FA0243187842EA4035DAE71D
:103BB0000748054020684560204602F0E9FA00B950
:103BC00066772268FF2151620021217770BD0000D5
:103BD0003FFFFF002DE9F0410446007F0D4601281C
:103BE00023D04FF0010884F81C8002206077206801
:103BF000002780684FEA4060D2B1002800DBEF70F8
:103C0000A878297840EA01466878E978000240EA15
:103C1000815006432168CA204862216853204862C7
:103C2000204602F091FAB8B12CE00220BDE8F08104
:103C3000002800DBEF70287802F07AFA0204687836
:103C400002F076FA42EA0022A87802F071FA024302
:103C5000E87842EA8056DDE70D48064020680660B5
:103C60002068816821F480218160D5E9030108433F
:103C700021688A6810438860204602F089FA08B9F2
:103C800084F81D802268FF2151622777CEE700006B
:103C90007F7F7F0070B504460068C16821F0A001F5
:103CA000C160FEF7EDFC05464FF47A7607E000BFF1
:103CB000FEF7E6FC401BB04201D9032070BD20682E
:103CC000C0688006F4D5002070BD70B50D460400B4
:103CD00003D094F82C0010B107E0012070BD002043
:103CE00084F82D00204600F011F8022084F82C0002
:103CF000211D2068FDF750FED4E900022946FDF79A
:103D0000AFFE012084F82C00002070BDFEF74EBAF3
:103D100010B5044690F82C00022804D094F82C002A
:103D2000012801D0012010BD022084F82C00206859
:103D3000FDF765FE012084F82C00002010BD000076
:103D400070B5044690F82C000D46022804D00128D6
:103D500003D0052801D0012070BD022084F82C007A
:103D60002068FDF755FE2868022805D05FF00100A5
:103D700084F82C00002070BD0520F9E710B5040080
:103D800011D0022084F851002068016821F0400120
:103D90000160204600F06AF80020606584F8510058
:103DA00084F8500010BD012010BD90F851007047FC
:103DB00070B5040009D0606A002540B125616561D5
:103DC000A56294F8510040B10CE0012070BD60681C
:103DD000B0F5827FF4D0E561F2E784F850502046D8
:103DE00000F05AF8022084F851002068016821F0A0
:103DF00040010160A088218900F4827001F404412F
:103E00000843A18901F400610843217C01F002010B
:103E10000843217D01F001010843218B01F4007169
:103E20000843217F01F03801084394F8201001F085
:103E300080010843218D01F4005108432168086086
:103E4000A069042101EA104094F8241001F0100147
:103E50000843216848602068C16921F40061C1619C
:103E60006565012084F85100002070BD0068074995
:103E7000884209D10648016821F4801101604FF49D
:103E800060710448FEF700BA70470000005001401E
:103E9000443802400014024010B586B00446142194
:103EA0006846FCF7EAFB13492068884220D1124893
:103EB0000021026842F480120260006800F4801061
:103EC00005900D481438026842F020020260006834
:103ED00000F0200005904FF4607000900220CDE9C2
:103EE00001010520CDE9031069460448FEF7A0FA58
:103EF00006B010BD0050014044380240001402409A
:103F00002DE9F84F044640680025984616460F46AE
:103F10004FF0040BB0F5827F01D1A06888B194F80E
:103F20005000012818D0012084F85000FEF7A8FBAB
:103F3000814694F851004FF0000A01280ED0022566
:103F400082E084F851B013460A462046CDF800803E
:103F500000F036F9BDE8F88F0220FBE7002F72D0A1
:103F6000002E70D084F851B0C4F854A0A763A6877F
:103F7000E687C4F830A0A4F834A0A4F836A0C4F8AA
:103F800040A0C4F844A0A068B0F5004F09D1206853
:103F9000016821F0400101602068016821F480413E
:103FA000016020680168490603D4016841F04001BE
:103FB0000160E068D8B139E020688168C90709D09C
:103FC000007BA16B0870A06B401CA063E08F401EBB
:103FD000E0870CE0FEF754FBA0EB0901414503D359
:103FE000B8F1FF3F03D036E0B8F1000F33D0E08FD7
:103FF0000028E1D11DE020688168C90709D0C068A8
:10400000A16B0880A06B801CA063E08F401EE0873E
:104010000CE0FEF735FBA0EB0901414503D3B8F1F5
:10402000FF3F03D017E0B8F1000F14D0E08F002855
:10403000E1D14A464146204602F0BFF808B12020AF
:104040006065606D00B10125012084F8510084F89D
:1040500050A028467EE70325F6E72DE9F84F0446F1
:1040600090F8500000271D461646894601280DD0BD
:104070004FF0010B84F850B0FEF702FB804694F835
:104080005100BA46012804D0022793E00220BDE87F
:10409000F88FB9F1000F73D0002E71D0032084F88F
:1040A0005100C4F854A0C4F83090A686E686C4F83F
:1040B00038A0A4F83CA0A4F83EA0C4F844A0C4F8DA
:1040C00040A0A068B0F5004F09D12068016821F038
:1040D000400101602068016841F48041016020686E
:1040E0000168490603D4016841F040010160E068BD
:1040F000B0F5006F606803D030B3012E24D041E0EA
:1041000008B1012E1CD1206B21680088C86006E030
:1041100020688168890709D5216B0988C160206BF7
:10412000801C2063E08E401EE08609E0FEF7A8FABE
:10413000A0EB0800A84202D3681C01D031E07DB397
:10414000E08E0028E4D120E0206B2168007808731D
:1041500006E020688168890709D5216B0978017319
:10416000206B401C2063E08E401EE0860AE0FEF7D4
:1041700087FAA0EB0800A84203D3681C02D010E025
:1041800017E06DB1E08E0028E3D142462946204673
:1041900002F042F808B120206065A06818B106E07E
:1041A000FFE7032706E02068C16880680090606D23
:1041B00000B1012784F851B084F850A0384666E772
:1041C0002DE9F84F044690F8500000270A9E1D463E
:1041D00092468B464FF0010901280ED0012084F849
:1041E0005000FEF74DFA804694F8510061680128AE
:1041F0000CD0B1F5827F07D102E00220BDE8F88F34
:10420000A16809B9042801D00227C2E0BBF1000F60
:1042100027D0BAF1000F24D01DB394F85100042820
:1042200002D0052084F8510000206065C4F838A051
:10423000E587A587C4F830B0E586A586206460646C
:1042400020680168490603D4016841F0400101601B
:10425000E068B0F5006F606805D0E8B3012D46D086
:104260007FE0012795E008B1012D39D1206B21684D
:104270000088C860206B801C2063E08E401EE086B2
:104280002EE02068816889070FD5E18E69B1B9F108
:10429000010F0AD1216B0988C160206B801C20634B
:1042A000E08E401EE0864FF0000920688168C90753
:1042B0000CD0E18F51B1C068A16B0880A06B801C4D
:1042C000A063E08F401EE0874FF00109FEF7D8F9A8
:1042D000A0EB0800B04200E009E001D3701C50D10F
:1042E000E08E0028CDD1E08F0028CAD13FE0206BBE
:1042F000216800780873206B401C2063E08E401E0C
:10430000E0862EE02068816889070FD5E18E69B1CB
:10431000B9F1010F0AD1216B09780173206B401CA0
:104320002063E08E401EE0864FF00009206881681F
:10433000C9070CD0E18F51B1C068A16B0870A06BA8
:10434000401CA063E08F401EE0874FF00109FEF79C
:1043500097F9A0EB0800B04202D3701C01D010E026
:104360007EB1E08E0028CDD1E08F0028CAD1424630
:104370003146204601F050FF28B10127202060651A
:1043800007E0032705E0A06818B92068C1688068C5
:104390000090012084F85100002084F85000384635
:1043A0002CE770477047000070B590F83C20012A58
:1043B00032D0012480F83C40022280F83D2003687E
:1043C0005A689D6822F070060A6832435A60134B9F
:1043D00002689A4214D0B2F1804F11D0104B9A4229
:1043E0000ED0104B9A420BD00F4B9A4208D00F4B75
:1043F0009A4205D00E4B9A4202D00E4B9A4204D1FB
:10440000496825F080031943916080F83D40002100
:1044100080F83C10084670BD022070BD00000140CD
:104420000004004000080040000C0040000401406F
:10443000004001400018004010B5040003D094F87B
:104440003D0010B107E0012010BD002084F83C00C1
:10445000204600F01FF8022084F83D00211D20684E
:1044600002F03EF8012084F8460084F83E0084F80B
:104470003F0084F8400084F8410084F8420084F84A
:10448000430084F8440084F8450084F83D0000208F
:1044900010BD000008B500680649884208D10648EA
:1044A000016841F001010160006800F00100009026
:1044B00008BD0000000001404438024090F83D1063
:1044C000012901D001207047022180F83D100168C8
:1044D000CA6842F00102CA6000681149884214D0DB
:1044E000B0F1804F11D00F4988420ED00E4988425A
:1044F0000BD00E49884208D00D49884205D00D499D
:10450000884202D00C49884204D1816801F0070139
:10451000062903D0016841F00101016000207047C5
:10452000000001400004004000080040000C004072
:1045300000040140004001400018004070B50446EE
:1045400090F83C000025012817D0012684F83C6033
:10455000022084F83D002068826822F0770222F46D
:104560007F4282600868502838D00DDC20284FD068
:1045700005DC90B3102811D14AE0022070BD30282C
:1045800046D040280AD13BE060282FD070280DD0BB
:10459000B0F5805F03D0B0F5005F12D0012584F83C
:1045A0003D60002084F83C00284670BDCB68D1E90E
:1045B0000121206801F0F8FF2068816841F077014F
:1045C00009E0CB68D1E90121206801F0EDFF206806
:1045D000816841F480418160E1E719E0CA68496877
:1045E000206801F0F3FF5021206806E0CA6849689E
:1045F000206801F0FCFF6021206801F0DFFFCEE7BA
:10460000CA684968206801F0E1FF40212068F4E7AA
:10461000226801461046F0E7704770B5044600680E
:1046200001694FF00005C943890715D4C168C94322
:10463000890711D4E91E0161012020772068806973
:104640008007204602D0FFF7E7FF04E000F098F86B
:10465000204600F096F8257720680169C94349078C
:1046600017D4C168C943490713D46FF0040101612D
:10467000022020772068806910F4407F204602D015
:10468000FFF7CAFF04E000F07BF8204600F079F85D
:10469000257720680169C943090716D4C168C94351
:1046A000090712D46FF00801016104202077206807
:1046B000C0698007204602D0FFF7AEFF04E000F09B
:1046C0005FF8204600F05DF8257720680169C9434E
:1046D000C90617D4C168C943C90613D46FF01001C5
:1046E0000161082020772068C06910F4407F2046CF
:1046F00002D0FFF791FF04E000F042F8204600F0FE
:1047000040F8257720680169C943C90708D1C16805
:10471000C943C90704D1891E0161204600F032F85F
:1047200020680169C943090609D4C168C94309065B
:1047300005D46FF0800101612046FFF732FE20684A
:104740000169C943490609D4C168C943490605D46A
:104750006FF040010161204600F01EF820680169F9
:10476000C94389060BD4C168C943890607D46FF0D1
:10477000200101612046BDE87040FFF713BE70BD07
:104780007047704700680349884201D1FEF798BA24
:104790007047000000100040704770B5040004D05E
:1047A00094F83D00002510B106E0012070BD84F8AA
:1047B0003C50204600F022F8242084F83D00206878
:1047C000C16821F40051C160204601F023FF206838
:1047D000016921F4904101612068416921F02A01B9
:1047E00041612068C16841F40051C1602564202006
:1047F00084F83D0084F83E00002070BD10B586B0FE
:10480000044614216846FBF738FF144920688842A3
:1048100021D113480021026842F0100202600068B2
:1048200000F0100005900E481438026842F00102B2
:104830000260006800F0010005904FF4C060009035
:104840000220CDE90101032003900720049069466E
:104850000448FDF7EDFD06B010BD0000001001405A
:104860004438024000000240FEE701684A69D24332
:1048700052050FD46FF480624A61002140F8301F66
:10488000202242738173026942F0040202610173C3
:1048900001207047002070472DE9F84F044600685A
:1048A00089460B9D01689846174641F48061016076
:1048B0002068016841F48071016000954FF0011B90
:1048C0000022594620460A9B00F0DEF84FF4007A99
:1048D00040B120680068C00501D5C4F840A003209D
:1048E000BDE8F88F216809F0FE0008612B462849D1
:1048F00020460A9A00F0FCF8F0BB20684169806904
:1049000000902A4620460A9900F070F940B1206CC8
:1049100004283AD12068016841F40071016034E054
:10492000FEB2B8F1010F09D02168380A08612A46A1
:1049300020460A9900F05AF90028E8D1206806615B
:104940002A4620460A9900F051F90028DFD1206854
:10495000016841F4807101600095002259462046AB
:104960000A9B00F091F80028B3D1216809F0FF00FC
:1049700040F00100086100E007E02B4604492046B2
:104980000A9A00F0B5F80028AAD00120A8E7000094
:10499000020001002DE9F843044600680D46DDE9F8
:1049A000089701689846164641F4807101604B46AD
:1049B00000224FF001112046009700F065F848B141
:1049C00020680068C00502D54FF400702064032001
:1049D000BDE8F883216805F0FE0008613B464A46C1
:1049E0001549204600F084F888B92068416980693B
:1049F00000903A464946204600F0F8F848B1206C4D
:104A0000042804D12068016841F40071016001208C
:104A1000DEE7F5B2B8F1010F09D02168300A08616C
:104A20003A464946204600F0E1F80028E7D12068E0
:104A300005610020CCE700000200010070B51646B9
:104A40000D4604460DE02046FFF70FFF08B1012098
:104A500070BD681C05D0FDF713FE801BA84207D867
:104A600035B120684069C0434007ECD4002070BDD8
:104A7000002044F8300F20216173A073216941F0B8
:104A8000200121612073E2E72DE9F0471E469046A0
:104A90000D460446C1F30747DDF8209008E0701C7E
:104AA00006D0FDF7EDFDA0EB0900B0420FD876B1BE
:104AB0002068012F18D0806925EA00000004000C4E
:104AC00014D000214145EAD00020BDE8F087002045
:104AD00044F8300F20216173A073216941F0200157
:104AE000216120730120F0E74069E5E70121E9E752
:104AF0002DE9F0479A4691460E46044600254FF0B0
:104B00002008C1F3074725E020684069C0434005FD
:104B100014D42068016841F40071016021686FF4C9
:104B200080604861256384F83D8084F83E50206CA5
:104B300040F00400206484F83C501FE0B9F1FF3FCE
:104B400008D0FDF79DFDA0EB0A0149450CD8B9F14D
:104B5000000F09D02068012F13D0806926EA0000D9
:104B60000004000C0BD0CFE744F8305F84F80D80D0
:104B7000A573206940F02000206125730120BDE865
:104B8000F0874069EAE72DE9F041002590460E469E
:104B90000446202717E04069C043C0060CD454F8EF
:104BA000301B6FF01000486144F810596777A57703
:104BB000206A2062257717E0FDF762FDA0EB080070
:104BC000B04208D83EB120684169C9434906E2D4E1
:104BD0000020BDE8F08144F8305F6773A573206959
:104BE00040F02000206125730120F2E770B51646E1
:104BF0000D4604460DE02046FFF737FE08B10120C0
:104C000070BD681C05D0FDF73BFD801BA84207D88E
:104C100035B120684069C0430006ECD4002070BD67
:104C2000002044F8300F20216173A073216941F006
:104C3000200121612073E2E710B50348FDF766FD0E
:104C4000BDE8104000F002B88087002010B50E4883
:104C5000FDF775FD002815D10B480C494FF4804233
:104C600001600B49416000218160C0E9031241618C
:104C70008161C161016200F00DF8BDE81040024899
:104C8000FDF760BD10BD000080870020005C004083
:104C9000A086010000B50068284987B088424AD143
:104CA00027480021026842F004020260026802F014
:104CB00004020592026842F001020260006800F0FE
:104CC000010005904FF4807000901220CDE90101A1
:104CD000022003900420049069461A48FDF7A8FBBF
:104CE0004FF40070009069461748FDF7A1FB144887
:104CF0001030016841F400010160006800F4000018
:104D000005900F481038016841F400010160016806
:104D100021F40001016000220F214820FEF764FA0F
:104D20004820FEF753FA00220F214920FEF75CFAD3
:104D30004920FEF74BFA07B000BD0000005C0040C0
:104D4000303802400000024000080240FDF71CBA63
:104D5000114800B5026887B0002142F001020260EC
:104D6000006800F0010005904FF400400090012021
:104D7000CDE902014FF40410019069460748FDF7A0
:104D800057FB00220F212820FEF72EFA2820FEF7DD
:104D90001DFA07B000BD000030380240000002409C
:104DA000FFF754BF1FB50A4601460020084C8DF896
:104DB0000C000123A46803A88DE819000548FDF73D
:104DC00085FD08B1FFF738FF9DF80C0004B010BD59
:104DD000B8000020808700203EB514460A460146F0
:104DE000074880680094CDE9013001230548FDF7AC
:104DF0006DFD002802D0FFF71FFF01203EBD00001F
:104E0000B8000020808700201FB51346084C0A46D2
:104E10008DF80C300146A468012303A88DE8190021
:104E20000448FDF74FFE002801D0FFF705FF1FBD26
:104E3000B80000208087002008B50A26DFF8D89047
:104E4000364CDFF8DCA035464FF005084FF0FF3751
:104E50002078012804D0022821D0032833D136E05D
:104E600030480A226946806902F010FE3846FCF795
:104E700029F9082229463046FBF7E6FE2A48FCF7C6
:104E800021F9BDF80210BDF800000822FBF7DCFE96
:104E900000F0D8FEBDF80060BDF8025013E03846BF
:104EA000FBF7F0FC89F8008020A0FBF7EBFA23A0C9
:104EB000FBF7E8FA25A0FBF7E5FA20780228FCD0FA
:104EC0003846FBF7DFFC112001F014FEC0E738463E
:104ED000FBF7D8FC89F8008020A0FBF7D3FA00226A
:104EE0000F492148FEF79CFD9AF801101FA0FBF71F
:104EF000C9FA9AF8021020A0FBF7C4FA2078032818
:104F0000FCD000218AF802108AF801100A460449F0
:104F10001548FEF75FFED3E7610100200000002086
:104F2000680100200C0000200000FFFF4A75656743
:104F30006F207061757361646F0A00005072657351
:104F4000696F6E652073746172740A0070617261BA
:104F500020636F6E74696E7561720A0047616D65DA
:104F6000206F7665720A0000440500204D696E3A94
:104F70002025640A000000005365633A2025640A76
:104F800000000000FDF700B92DE9F041244886B08B
:104F90000178002940D1234C0125057020680026A6
:104FA00040F0080020602068022700F0080005900B
:104FB00068038DE8E100DFF8708069464046FDF740
:104FC00037FA206840F0080020602068694600F049
:104FD00008000590A0148DE8E1004046FDF728FA8E
:104FE000206840F0040020602068104C00F00400AD
:104FF000059004208DE8E10069462046FDF718FA87
:10500000002204212046FDF735FB01220421204621
:10501000FDF730FB01F092F906B0BDE8F081000029
:10502000B800002030380240000C02400008024066
:105030002DE9F843154D0C46074600220421284669
:10504000FDF718FBDFF848804FF400560022314688
:105050004046FDF70FFB384601F0BEF90D482246E9
:105060006946C3680C48FEF74BFF08B101F05CF9D4
:10507000012231464046009CFDF7FCFA0122042142
:105080002846FDF7F7FA2046BDE8F88300080240FD
:10509000000C0240B8000020D487002070B50546FF
:1050A000012251030948FDF7E5FA094C00220421C9
:1050B0002046FDF7DFFA284601F08EF92046BDE8CC
:1050C000704001220421FDF7D5BA0000000C024017
:1050D0000008024070B5054600224FF4005109480F
:1050E000FDF7C8FA084C002204212046FDF7C2FA59
:1050F000284601F071F92046BDE8704001220421E4
:10510000FDF7B8BA000C0240000802400148FDF764
:1051100088BE00009C040020F0B503688C88DD6820
:10512000C5F30B452C442504882404EBC2141E59F6
:1051300006F470461E5103680F68DE68C6F30B461E
:10514000761C3E442E431E5104688B89E568C5F3E6
:105150000A052B441D048C2303EBC213E65806F406
:105160007046E65004688F68E668C6F30A06761C47
:105170003E442E43E6509423046803EBC213E558E3
:1051800025F00705E55005680C69EC5091F83130C1
:105190000C7E1F0226069C24056804EBC21491F8BD
:1051A000323055F804C04FF0000C45F804C091F8B7
:1051B000305046EA03433D431D4303681D51982385
:1051C000046803EBC213E55825F0FF05E5500568B8
:1051D0004C69EC50A023046803EBC213E55840F27D
:1051E0000776B543E550D1E907452C430568EC50F7
:1051F000AC23046803EBC213E55844F803C0056808
:105200004C6AEC500B698BB3012B32D0042B32D09B
:10521000022B30D0032B2ED0072B2CD00123B0240F
:10522000056804EBC2142E5906F0E0262E51D1E990
:105230000065AD1B0E8D5D435E43ED1C45EA0643E4
:1052400005682B51B423046803EBC213E5586FF3D0
:105250000A05E5500468C96AE1500068842101EB41
:10526000C211425842F001024250F0BDFFE7042350
:10527000D5E70323D3E70223D1E700000EB50025CD
:105280007920ADF800004FF49270DFF8ECA32C46C3
:10529000ADF80850ADF80450ADF802004FF07F4B68
:1052A000F648007801287AD1F54F0A2202A9F86859
:1052B00002F0ECFB0A2201A9386902F0E7FBBDF914
:1052C0000800032803DD0320ADF8080005E06FF0B7
:1052D0000201884201DAADF80810BDF90410032973
:1052E00001DD032003E06FF00200814201DAADF836
:1052F00004004FF000092DE05FF00107BDF8020047
:10530000A0EB090081B2BDF80000384480B2FBF781
:105310006BFE504505D1BDF8000038440FFA80F807
:105320000DE058450BD1BDF80000BDF90810384418
:10533000A0EB080000B2884205DC012403E07F1CDA
:10534000FFB20F2FDAD909F1010000F0FF09B9F11E
:10535000080F01D8002CCFD04FF000092BE0002718
:10536000BDF80200BDF80020C01B81B202EB0900AD
:1053700080B2FBF739FE504504D1BDF80200C01BD6
:1053800006B20DE058450BD1BDF80200BDF904107E
:10539000C01B801B00B2884206DB012504E066E1E9
:1053A0007F1CFFB20F2FDBD909F1010000F0FF09CC
:1053B000B9F1080F01D8002DD1D04FF000092FE02E
:1053C0005FF00007BDF80210A1EB090081B2BDF843
:1053D0000000C01B80B2FBF707FE504505D1BDF8A9
:1053E0000000C01B0FFA80F80FE058450DD1BDF842
:1053F0000000BDF90810C01BA0EB080000B28842F5
:1054000007DB01244FF0000803E07F1CFFB20F2FE1
:10541000D8D909F1010000F0FF09B9F1080F01D84E
:10542000002CCDD04FF000092BE00127BDF8020081
:10543000BDF80020C01B81B2A2EB090080B2FBF7CF
:10544000D3FD504504D1BDF80200C01B06B20DE0EB
:1054500058450BD1BDF80200BDF90410C01B801BDC
:1054600000B2884206DB0125002603E07F1CFFB264
:105470000F2FDBD909F1010000F0FF09B9F1080F86
:1054800001D8002DD1D04FF000092DE05FF00007CA
:10549000BDF8021001EB090081B2BDF80000C01B8D
:1054A00080B2FBF7A1FD504505D1BDF80000C01B3F
:1054B0000FFA80F80DE058450BD1BDF80000BDF99A
:1054C0000810C01BA0EB080000B2884205DB0124D5
:1054D00003E07F1CFFB20F2FDAD909F1010000F0C1
:1054E000FF09B9F1080F01D8002CCFD04FF0000907
:1054F0002AE00127BDF80200BDF80020384481B23F
:10550000A2EB090080B2FBF76FFD504504D1BDF856
:105510000200384406B20CE058450AD1BDF802003A
:10552000BDF904103844801B00B2884205DC012517
:1055300003E07F1CFFB20F2FDCD909F1010000F05E
:10554000FF09B9F1080F01D8002DD2D04FF00009A2
:105550002CE00127BDF8021001EB090081B2BDF873
:105560000000384480B2FBF73FFD504505D1BDF83F
:10557000000038440FFA80F80DE058450BD1BDF813
:105580000000BDF908103844A0EB080000B28842C2
:1055900005DC012403E07F1CFFB20F2FDAD909F1EB
:1055A000010000F0FF09B9F1080F01D8002CD0D09C
:1055B0004FF000092AE00027BDF80200BDF80020E6
:1055C000384481B202EB090080B2FBF70DFD504573
:1055D00004D1BDF80200384406B20CE058450AD1A7
:1055E000BDF80200BDF904103844801B00B28842A7
:1055F00005DC012503E07F1CFFB20F2FDCD909F188
:10560000010000F0FF09B9F1080F01D8002DD2D038
:10561000012D03D10020ADF804000546012C03D173
:105620000020ADF808000446BDF80000BDF80810E1
:1056300000230844ADF80000BDF80200BDF80410D6
:105640000A220844ADF802000D486946806902F05C
:105650006DF9BDF802000E2809D87920ADF80000D8
:105660004FF492700549ADF802000320087019202C
:1056700001F040FA14E600000000FFFF00000020E7
:105680000C000020074910B5054808600846FCF7E3
:10569000E7FA002803D0BDE81040FCF77BB910BD45
:1056A00000300240300000200E4810B50C49016067
:1056B000002141608160C1608162C1620163416318
:1056C000FCF7D7FB08B1FCF765F901210548FCF7A9
:1056D000EFFA002803D0BDE81040FCF75BB910BD1D
:1056E00000B00240D403002000B587B01C216846FA
:1056F000FAF7C3FF1548144900F1080C01600121B5
:1057000041600021042210238CE80E0040234361F5
:105710004FF4C073C0E906315302C0E90831D10229
:105720008162022007218DE8070003910321CDE962
:105730000410069069460548FEF7C7FA002801D014
:10574000FCF728F907B000BD400100A014040020B8
:1057500030B52A4DA5B015AC95E80F0084E80F00D0
:10576000002115A801F0D2F9254C10350DF1640C7B
:10577000E06095E80F008CE80F00002119A8103DAB
:1057800001F0C4F92035206195E80F000DF1740C8B
:10579000203D8CE80F0000211DA801F0B7F930353D
:1057A000606195E80F0021AD85E80F00002121A878
:1057B00001F0ACF91149A0611C2240316846FAF7AA
:1057C00022FF0021684601F0B4F90C4920601C2238
:1057D0005C3107A8FAF717FF002107A801F0A9F923
:1057E000064960601C2278310EA8FAF70CFF0021F0
:1057F0000EA801F09EF9A06025B030BDAC7F000876
:105800000C0000202DE9F04F87B014216846FAF70C
:1058100034FF68480024016841F004010160016818
:1058200001F004010591016841F020010160016867
:1058300001F020010591016841F0800101600168DB
:1058400001F080010591016841F0010101600168EA
:1058500001F001010591016841F002010160016858
:1058600001F002010591016841F040010160016809
:1058700001F040010591016841F0100101600168EB
:1058800001F010010591016841F008010160006814
:10589000DFF8249100F00800059000221621484608
:1058A000FCF7E8FEDFF814A1002280215046FCF747
:1058B000E1FEDFF80CB14FF440570022394658465C
:1058C000FCF7D8FE4FF4C048002241463D48FCF7A3
:1058D000D1FE162000900125CDE9015469464846C5
:1058E0000394FCF7A5FD4FF488100095CDE9010461
:1058F00069465046FCF79CFD48F206004FF49016AE
:10590000CDE90006694602945046FCF791FD8020DF
:105910000090CDE90154694650460394FCF788FD98
:105920002020CDE90006694602944846FCF780FD38
:105930000420CDE90004244E694630460294FCF769
:1059400077FD4FF4504000900220CDE901040C2077
:10595000CDE9034069463046FCF76AFD6803CDE9AE
:105960000004694630460294FCF762FDE802CDE986
:105970000004694658460294FCF75AFD0097CDE9A9
:105980000154694658460394FCF752FDCDF8008057
:10599000CDE9015469460B480394FCF749FD002208
:1059A00005210620FDF720FC0620FDF70FFC07B0BF
:1059B000BDE8F08F3038024000080240000002408D
:1059C000000C02400018024000040240144810B5C8
:1059D000124901601349416000214FF48042816007
:1059E000C0E9031241618161C1610162FCF7AAFE55
:1059F00008B1FBF7CFFF00210948FCF747FE08B1CB
:105A0000FBF7C8FF00210648FCF761FE002803D021
:105A1000BDE81040FBF7BEBF10BD0000005C0040B9
:105A200048040020A086010010B58EB034216846DD
:105A3000FAF723FE274826490024C0E900148460B1
:105A40000921C460C0E90441012181611D21C161B6
:105A50000321016240F20D11416240F24311816263
:105A600040F21711C16240F24711016380F83440DF
:105A700080F8354080F83640FDF738FA08B1FBF77A
:105A800089FFF020CDE900404FF4A071022202947A
:105A9000CDE90312FF22CDE905244FF4C06207923D
:105AA000072208924FF05042CDE90A018DF83040AC
:105AB00009928DF831408DF8324000226946054840
:105AC000FDF76CF9002801D0FBF764FF0EB010BDA4
:105AD000006801409C04002010B586B0142168467F
